:020000040000FA
:1020000034EF3FF0FFFFFFFF1000FFFFFFFFFFFF78
:10201000FFFFFFFFFFFFFFFF1000FFFFFFFFFFFFBE
:10202000FFFFFFFFFFFFFFFFFFFFFFFFFFFFFFFFC0
:10203000FFFFFFFFFFFFFFFFFFFFFFFFFFFFFFFFB0
:107E0000FFFFFFFFFFFFFFFFFFFFFFFFFFFFFFFF82
:107E1000FFFFFFFFFFFFFFFFFFFFFFFFFFFFFFFF72
:107E2000FFFFFFFFFFFFFFFFFFFFFFFFFFFFFFFF62
:107E3000FFFFFFFF030E0F01C26E0000C2B21DEF75
:107E40003FF0C4CF00F0C3CF01F012002F0E0F019E
:107E50005B6F976A906A916AC16ABE0EC06EC36A10
:107E6000C46A010EC26E1200700ED36E9268936ADD
:107E700026EC3FF01AEC3FF0030E006074EF3FF089
:107E8000020E006068EF3FF0010E00605CEF3FF013
:107E9000E00E016058EF3FF0700E016054EF3FF0CC
:107EA000000E8A6E3AEF3FF0010E8A6E3AEF3FF015
:107EB000030E8A6E3AEF3FF0C00E016064EF3FF0B0
:107EC000070E8A6E3AEF3FF00F0E8A6E3AEF3FF0E0
:107ED000A00E016070EF3FF01F0E8A6E3AEF3FF088
:107EE0003F0E8A6E3AEF3FF0B60E01607CEF3FF036
:107EF0007F0E8A6E3AEF3FF0FF0E8A6E3AEF3FF048
:020000040030CA
:0800000023280E3CFFD181FF13
:020000040020DA
:08000000000B0A0500000000DE
:00000001FF
